:100000000C94E2000C940A010C940A010C940A016D
:100010000C940A010C940A010C940A010C940A0134
:100020000C940A010C940A010C94BD040C942F0545
:100030000C940A010C940A010C940A010C940A0114
:100040000C940A010C940A010C940A010C940A0104
:100050000C940A010C940A010C940A010C94730488
:100060000C940A010C940A010C940A010C940A01E4
:100070000C940A010C940A010C940A010C940A01D4
:100080000C940A010C940A010C940A010C940A01C4
:100090000C940A010C940A010C940A010C940A01B4
:1000A0000C940A010C940A010C940A018A018D0136
:1000B0007C0180018401AE01AE01AE019101950188
:1000C00099019F01A301AE01A901000000002400D5
:1000D00027002A002D003000000000002300260029
:1000E00029002C002F00080B000202020100090465
:1000F0000000010202000005240010010524010196
:1001000001042402060524060001070581031000EE
:100110004009040100020A00000007050202400035
:1001200000070583024000000403090412010002D5
:10013000EF020140412341800001010203014172AD
:100140006475696E6F204C4C430041726475696E32
:100150006F2059756E0000000000250028002B005C
:100160002E00310004040404040304050202020208
:100170000403020202020606060606060404020240
:100180000204040408020110408040102040804016
:1001900080080204018040201002011080102040DD
:1001A00040200000000200090F0000030401000CC1
:1001B000000000000000000000000000000000003F
:1001C0000000D30811241FBECFEFDAE0DEBFCDBFA1
:1001D00011E0A0E0B1E0EEE2F2E102C005900D9284
:1001E000A832B107D9F721E0A8E2B1E001C01D9221
:1001F000A739B207E1F710E0C2EED0E004C02197C2
:10020000FE010E940A09C13ED107C9F70E94B20748
:100210000C9415090C94000020914601211103C093
:100220008FEF9FEF08955FB7F89422E02093E900E5
:100230002091F20030E01216130614F421E030E0B1
:10024000422FFC0184E6415038F028988093450104
:100250009091F1009193F7CF2115310521F0809114
:10026000F200882319F05FBFC90108958BE68093DF
:10027000E800F9CF2FB7F89483E08093E9009091DC
:10028000E800892F807295FF04C09091F20080E40D
:10029000891B2FBF089580913D0181110DC082E01F
:1002A0008093390184E080933A0110923C011092CE
:1002B0003B0181E080933D0189E391E00895362F71
:1002C00090E0FC01EE55FE4F4491FC01ED57FE4FCE
:1002D0002491FC01EC59FE4F8491882309F452C00B
:1002E0004423E1F150E0FA013197EF30F105B0F528
:1002F000EA5AFF4F0C940A09909180009F7707C03B
:10030000909180009F7D03C090918000977F909393
:10031000800024C094B59F7702C094B59F7D94BDA2
:100320001DC0909190009F7707C0909190009F7D95
:1003300003C090919000977F909390000FC0909190
:10034000C0009F7703C09091C0009F7D9093C00034
:1003500005C09091C200977F9093C200E82FF0E013
:10036000EE0FFF1FEA5AFE4FA591B4919FB7F89484
:10037000311104C08C912095282302C0EC912E2BC2
:100380002C939FBF08953FB7F894809135019091C9
:100390003601A0913701B091380126B5A89B05C060
:1003A0002F3F19F00196A11DB11D3FBFBA2FA92FF4
:1003B000982F8827820F911DA11DB11DBC01CD0171
:1003C00042E0660F771F881F991F4A95D1F708955D
:1003D0008F929F92AF92BF92CF92DF92EF92FF9255
:1003E0006B017C010E94C3014B015C01C114D1046B
:1003F000E104F104F1F00E94C301DC01CB01881992
:100400009909AA09BB09883E9340A105B10570F37B
:1004100021E0C21AD108E108F10888EE880E83E0D5
:10042000981EA11CB11CC114D104E104F10419F7F8
:10043000DDCFFF90EF90DF90CF90BF90AF909F9077
:100440008F90089540912A0150912B01209128010D
:100450003091290142175307B4F49091E800957048
:10046000E1F39091E80092FD19C08093F100809132
:100470002A0190912B0101968F739927892B19F4EA
:100480008EEF8093E80080912A0190912B010196D4
:1004900090932B0180932A0181E0089580E00895D4
:1004A000DF92EF92FF920F931F93CF93DF93D82E9B
:1004B000F92EE42E062F10E0C8010196880F0E9445
:1004C000220283E00E942202CD2DDF2D0C0F1D1F82
:1004D000C017D10789F0E7FE03C0FE01849101C077
:1004E00088810E942202F82E80E00E9422028F2141
:1004F00021968111EDCF01C081E0DF91CF911F9155
:100500000F91FF90EF90DF900895DF92EF92FF92AE
:100510000F931F93CF93DF93D82E8A017B01E40EB4
:10052000F51EEB01CE15DF0571F0D7FE03C0FE010D
:10053000849101C088810E94220221968111F2CF0C
:100540008FEF9FEF01C0C801DF91CF911F910F91F5
:10055000FF90EF90DF9008950F931F93CF93DF9359
:100560001F92CDB7DEB782E0898342E450E066EEA9
:1005700070E080E80E9485020E944B01DC01129627
:100580000D911C9113970115110589F0D801ED917A
:10059000FC910280F381E02DBE016F5F7F4FC801A7
:1005A000099597FD04C0F80100851185ECCF89817C
:1005B0000F90DF91CF911F910F910895615030F00E
:1005C0002091F100FC0120830196F8CF289884E661
:1005D000809345010895CF92DF92EF92FF920F939F
:1005E0001F93CF93DF936C017A018B01C0E0D0E0C1
:1005F000CE15DF0581F0D8016D918D01D601ED9109
:10060000FC910190F081E02DC6010995892B11F034
:100610002196EECF7E01C701DF91CF911F910F91FF
:10062000FF90EF90DF90CF9008958F929F92AF92BE
:10063000BF92CF92DF92EF92FF920F931F93CF93CF
:10064000DF936C017B018A0180910B01882309F4FF
:100650005CC080914601882309F457C080912E0127
:1006600080FF05C08091E00082608093E000E80197
:10067000B12C8AEFA82E93E0892E2AE3922E2097A0
:1006800011F4BB20D9F10E943A0181110AC0AA9449
:10069000AA20D9F161E070E080E090E00E94E801DA
:1006A000EECF282F30E0C217D3070CF48C2F9FB762
:1006B000F8948092E9002091E80025FF1DC0282FC2
:1006C00030E0C21BD30BF701815020F041914093E1
:1006D000F100FACFE20EF31EBB2019F09092E80071
:1006E0000AC08091E80085FD07C09092E800BB2415
:1006F000B394209709F0B12C9FBFC1CF5D9884E6D9
:1007000080932F011016110644F081E090E0F6016D
:100710009383828380E090E001C0C801DF91CF9194
:100720001F910F91FF90EF90DF90CF90BF90AF900F
:100730009F908F900895CF93DF931F92CDB7DEB730
:100740006983DC01ED91FC910280F381E02D41E0B1
:1007500050E0BE016F5F7F4F09950F90DF91CF9101
:10076000089583E08093E9008091F200882319F0D6
:100770008AE38093E80008950E943A0190E008958A
:10078000CF93DF931F92CDB7DEB7FC0184859585AB
:1007900097FD05C02FEF3FEF358724870BC0CE01B3
:1007A00001960E940C01019719F4898190E002C022
:1007B0008FEF9FEF0F90DF91CF9108950F931F93CD
:1007C000CF93DF931F92CDB7DEB78C01FC018485F8
:1007D000958597FF0EC0CE0101960E940C010197EE
:1007E00019F4898190E002C08FEF9FEFF80195879F
:1007F0008487F801848595850F90DF91CF911F91B3
:100800000F910895FC018485958597FD0BC09FB7D6
:10081000F89482E08093E9008091F2009FBF90E01D
:10082000019608959FB7F89482E08093E900809143
:10083000F2009FBF90E00895089580E090E0089551
:100840008F929F92AF92BF920F931F93CF93DF939C
:10085000CDB7DEB7A1970FB6F894DEBF0FBECDBF00
:1008600019A2423008F44AE08E010F5D1F4F842E1A
:10087000912CA12CB12CA50194010E94E808E62F2F
:10088000B901CA0101501109EA3014F4E05D01C058
:10089000E95CD801EC93232B242B252B61F7011560
:1008A000110571F0F80101900020E9F73197AF01CF
:1008B000401B510BB80187E491E00E94150302C070
:1008C00080E090E0A1960FB6F894DEBF0FBECDBFDA
:1008D000DF91CF911F910F91BF90AF909F908F901C
:1008E00008950E9410091F920F920FB60F921124C3
:1008F0002F933F938F939F93AF93BF938091310139
:1009000090913201A0913301B091340130913001C6
:1009100023E0230F2D3720F40196A11DB11D05C042
:1009200026E8230F0296A11DB11D2093300180936C
:10093000310190933201A0933301B093340180913F
:10094000350190913601A0913701B091380101969F
:10095000A11DB11D8093350190933601A0933701FD
:10096000B0933801BF91AF919F918F913F912F919B
:100970000F900FBE0F901F9018951F920F920FB6F9
:100980000F9211248F939F938091E1009091E10049
:10099000937F9093E10083FF0FC01092E90091E0F4
:1009A0009093EB001092EC0092E39093ED00109284
:1009B000460198E09093F00082FF20C093E090936E
:1009C000E9009091F200992319F09AE39093E800DE
:1009D00090912F01992339F090912F01915090938C
:1009E0002F01992389F190914501992339F0909134
:1009F0004501915090934501992341F184FF10C026
:100A00008091E2008E7E81608093E2008091E1001F
:100A10008F7E8093E10080912E018E7E806111C0D7
:100A200080FF16C08091E2008E7E80618093E2009C
:100A30008091E1008E7E8093E10080912E018E7E78
:100A4000816080932E0104C05D9ACDCF289AD6CFC5
:100A50009F918F910F900FBE0F901F9018951F922E
:100A60000F920FB60F921124CF92DF92EF92FF9266
:100A70000F931F932F933F934F935F936F937F93A6
:100A80008F939F93AF93BF93EF93FF93CF93DF9396
:100A9000CDB7DEB76C97DEBFCDBF1092E900809175
:100AA000E80083FFFBC168E0CE0145960E94DE02AC
:100AB00082EF8093E8008D8987FF05C09091E80060
:100AC00090FFFCCF03C09EEF9093E800982F9076A4
:100AD00009F0C6C09E894F89588D2F89F88C9111D5
:100AE0000CC0803829F480912D018093F10002C060
:100AF0001092F1001092F10045C1913051F4811132
:100B000041C14130510509F03DC180912D018D7FDA
:100B10000BC0933061F4811135C14130510509F0AA
:100B200031C180912D01826080932D012BC19530C0
:100B300049F48091E80080FFFCCF822F8068809389
:100B4000E30020C1963009F05EC00B8D1C8D22E0C1
:100B50001092E90010922B0110922A01F21232C079
:100B600010922901109228010E94AC0299E0BE0166
:100B70006F5F7F4FDB01E92F1D92EA95E9F79983BB
:100B8000FA8291E09E8390EA98879AEF9987209164
:100B90002A0130912B01275F3F4F3C832B838D83AC
:100BA0001092E90010922B0110922A011093290152
:100BB0000093280149E050E080E00E9485020E94F5
:100BC000AC02E0C010932901009328010E944B0160
:100BD000DC0112960D911C9113970115110509F472
:100BE000BBC0D801ED91FC910480F581E02DBE01E0
:100BF0006B5E7F4FC8010995009709F0C7C0F801E7
:100C000000851185EACF973009F445C1983021F469
:100C100081E08093F100B6C0993009F0B3C08370D1
:100C200009F039C1EFE1F1E081E031E096E32081A4
:100C3000211109C08EE78093EA001092EA008F89A3
:100C4000809346019FC08093E9003093EB0021918F
:100C50002093EC009093ED008F5F873041F7EACF4F
:100C60008B8D9C8D1092E90010922B0110922A011D
:100C70009093290180932801898D811153C08E8919
:100C80009D89913A49F4813209F005C147E050E06D
:100C900064E071E080E0BBC0913209F0FCC08332B7
:100CA00069F48F89988DA0E0B0E080930001909363
:100CB0000101A0930201B093030164C0803269F482
:100CC0008091E80082FFFCCF67E084E091E00E9421
:100CD000DE028BEF8093E80055C0823209F052C0EB
:100CE0008F8980930B01EEEFFFE7859194918B3F05
:100CF0009C4D19F0E0E0F8E002C0EEEFFAE08091E0
:100D0000040190910501A0910601B0910701803B7B
:100D10009440A105B10509F09EC080910B0180FFB0
:100D200079C099C00E944B01FC0102811381011519
:100D3000110509F4B0C0D801ED91FC910190F0814A
:100D4000E02DBE016B5E7F4FC801099581111AC06D
:100D5000F80100851185EBCFF1E0FF1609F44EC0D4
:100D6000F3E0FF1298C08F89882309F44AC08230CB
:100D700089F440E86BE08AE491E00E945002882305
:100D800009F489C08EEF8093E80088C01816190610
:100D9000CCF381C0813029F440E86BE08EE391E030
:100DA000ECCF833009F077C00E944B01DC01129632
:100DB000ED90FC9013978E010F5F1F4F6801E114B7
:100DC000F10479F0D701ED91FC910680F781E02DD7
:100DD000B801C7010995080F111DF701E084F184DE
:100DE000EECFD8011C92F60101900020E9F731976F
:100DF000BF016C197D0940E0C601BFCF6CE271E014
:100E000002C068E271E0FB01449150E080E80E947A
:100E10008502B8CFEE3F2AE0F20751F08081918140
:100E20008737A7E79A0721F09093FF0A8093FE0A7D
:100E300087E797E7918380838091600080932C01FE
:100E40009BE088E10FB6F894A895809360000FBEF0
:100E50009093600097CF808191818737974709F001
:100E600091CFA89580916000886180936000809107
:100E70002C0180936000EE3FBAE0FB0739F08091CF
:100E8000FE0A9091FF0A918380837CCF1092FF0A23
:100E90001092FE0A77CF81E28093EB006C960FB63A
:100EA000F894DEBF0FBECDBFDF91CF91FF91EF91E0
:100EB000BF91AF919F918F917F916F915F914F9172
:100EC0003F912F911F910F91FF90EF90DF90CF9066
:100ED0000F900FBE0F901F901895CF92DF92EF9258
:100EE000FF920F931F93E82FF92F05C001501109AE
:100EF0002109310961F1908196239417B9F305C056
:100F0000015011092109310911F19081962394139F
:100F1000F7CFC12CD12CE12CF12C0AC08FEFC81ACD
:100F2000D80AE80AF80A0C151D052E053F0579F0C8
:100F300080818623841791F36C2D7D2D8E2D9F2D1E
:100F40001F910F91FF90EF90DF90CF90089560E098
:100F500070E080E090E01F910F91FF90EF90DF90A4
:100F6000CF900895789484B5826084BD84B5816003
:100F700084BD85B5826085BD85B5816085BD809164
:100F80006E00816080936E001092810080918100DC
:100F900082608093810080918100816080938100D4
:100FA00080918000816080938000809191008260B8
:100FB0008093910080919100816080939100809155
:100FC00090008160809390008091C1008460809344
:100FD000C1008091C10082608093C1008091C100F6
:100FE00081608093C1008091C30081608093C300C1
:100FF0008091C00082608093C0008091C2008160B7
:101000008093C20080917A00846080937A008091FE
:101010007A00826080937A0080917A008160809368
:101020007A0080917A00806880937A00109246015D
:1010300010922D0110922E018091D7008160809333
:10104000D70080EA8093D80089B5806189BD89B5D1
:10105000826089BD09B400FEFDCF61E070E080E0F0
:1010600090E00E94E8018091D8008F7C806180939D
:10107000D8008091E000807F8093E0008091E100C3
:101080008E7E8093E1008DE08093E200559A209A55
:101090008FEF9FEF9093540180935301EFE8F1E0BD
:1010A0002491E0E7F1E08491882399F090E0880FA3
:1010B000991FFC01E653FF4FA591B491FC01EA5A38
:1010C000FE4F859194918FB7F894EC91E22BEC93BD
:1010D0008FBFE0E9F1E02491E1E7F1E0849188231A
:1010E000C1F090E0880F991FFC01E653FF4FC591B6
:1010F000D491FC01EA5AFE4FA591B4919FB7F894A0
:101100008881E22FE0958E2388838C91E823EC93ED
:101110009FBFC0E9D1E091E7E92E91E0F92E20E0F0
:10112000C22E20E0D22E60E08CE00E945F0165E0DC
:1011300070E080E090E00E94E80161E08CE00E94B5
:101140005F016AE070E080E090E00E94E80160E00A
:101150008CE00E945F01FE016491F7018491E82F09
:10116000F0E0EE0FFF1FE852FF4F8591949100E4ED
:1011700012E42FE030E0462F0E946D074AE060E065
:1011800070E0CB010E94200442E050E065E271E093
:1011900087E491E00E941503C114D10409F4C3CF80
:1011A0000E940000C0CFE7E4F1E01382128288EED3
:1011B00093E0A0E0B0E084839583A683B78380E1C9
:1011C00091E0918380838FEF9FEF958784870895C7
:1011D000A1E21A2EAA1BBB1BFD010DC0AA1FBB1F3B
:1011E000EE1FFF1FA217B307E407F50720F0A21BAD
:1011F000B30BE40BF50B661F771F881F991F1A941A
:1012000069F760957095809590959B01AC01BD0143
:10121000CF010895EE0FFF1F0590F491E02D099482
:0E12200081E090E0F8940C941509F894FFCF4B
:10122E00FFFFFFFF00E100000000000000000000D3
:10123E009B031503BC03B1030204C003DE0300C10C
:08124E0080810000000D0A0080
:00000001FF
