:100000000C9462000C948A000C948A000C948A0070
:100010000C948A000C948A000C948A000C94FA03C5
:100020000C948A000C948A000C948A000C941F048F
:100030000C948A000C948A000C948A000C948A0018
:100040000C9458030C948A000C94C8030C94A203DB
:100050000C948A000C948A000C948A000C948A00F8
:100060000C948A000C948A00000000080002010031
:100070000003040700000000000000000000000072
:10008000240027002A000000000023002600290089
:1000900000000000250028002B00040404040404D0
:1000A0000404020202020202030303030303010227
:1000B00004081020408001020408102001020408F6
:1000C0001020DB0411241FBECFEFD8E0DEBFCDBF70
:1000D00011E0A0E0B1E0EAE5FFE002C005900D927A
:1000E000A631B107D9F721E0A6E1B1E001C01D9228
:1000F000AE3FB207E1F710E0C2E6D0E004C02197BE
:10010000FE010E94A507C136D107C9F70E949005DC
:100110000C94AB070C94000090E0FC01E255FF4FFB
:10012000249186569F4FFC018491882399F090E09A
:10013000880F991FFC01E458FF4FA591B491FC0171
:10014000E057FF4F859194918FB7F894EC91E22B93
:10015000EC938FBF089590E0FC01E859FF4F249184
:10016000FC01E255FF4F3491FC01E656FF4FE4914C
:10017000EE23C9F0222339F0233001F1A8F4213015
:1001800019F1223029F1F0E0EE0FFF1FE057FF4F89
:10019000A591B4918FB7F894EC91611126C0309578
:1001A0003E233C938FBF08952730A9F02830C9F033
:1001B000243049F7809180008F7D03C080918000BA
:1001C0008F7780938000DFCF84B58F7784BDDBCFBE
:1001D00084B58F7DFBCF8091B0008F778093B00086
:1001E000D2CF8091B0008F7DF9CF3E2BDACF3FB7D1
:1001F000F8948091200190912101A0912201B09169
:10020000230126B5A89B05C02F3F19F00196A11D1B
:10021000B11D3FBFBA2FA92F982F8827BC01CD0150
:10022000620F711D811D911D42E0660F771F881FAF
:10023000991F4A95D1F70895AF92BF92CF92DF925E
:10024000EF92FF920F931F93CF93DF936C017B018B
:100250008B01040F151FEB015E01AE18BF08C0171C
:10026000D10759F06991D601ED91FC910190F0818F
:10027000E02DC6010995892B79F7C501DF91CF9152
:100280001F910F91FF90EF90DF90CF90BF90AF90B4
:100290000895FC01538D448D252F30E0842F90E08C
:1002A000821B930B541710F0CF9608950197089571
:1002B000FC01918D828D981761F0A28DAE0FBF2F3A
:1002C000B11D5D968C91928D9F5F9F73928F90E090
:1002D00008958FEF9FEF0895FC01918D828D9817FF
:1002E00031F0828DE80FF11D858D90E008958FEF3C
:1002F0009FEF0895FC01918D228D892F90E0805C05
:100300009F4F821B91098F739927089584E291E092
:100310000E947A0121E0892B09F420E0822F0895C0
:1003200080E090E0892B29F00E94860181110C94D5
:1003300000000895FC01A48DA80FB92FB11DA35A88
:10034000BF4F2C91848D90E001968F739927848FF5
:10035000A689B7892C93A089B1898C918370806418
:100360008C93938D848D981306C00288F389E02DB9
:1003700080818F7D80830895EF92FF920F931F936A
:10038000CF93DF93EC0181E0888F9B8D8C8D981348
:100390001AC0E889F989808185FF15C09FB7F89454
:1003A000EE89FF896083E889F989808183708064A0
:1003B00080839FBF81E090E0DF91CF911F910F91EB
:1003C000FF90EF900895F62E0B8D10E00F5F1F4FFA
:1003D0000F731127E02E8C8D8E110CC00FB607FC09
:1003E000FACFE889F989808185FFF5CFCE010E9497
:1003F0009A01F1CFEB8DEC0FFD2FF11DE35AFF4F6A
:10040000F0829FB7F8940B8FEA89FB898081806224
:10041000CFCFCF93DF93EC01888D8823B9F0AA89E1
:10042000BB89E889F9898C9185FD03C0808186FDAF
:100430000DC00FB607FCF7CF8C9185FFF2CF8081FE
:1004400085FFEDCFCE010E949A01E9CFDF91CF91D8
:1004500008958F929F92AF92BF92FF920F931F9336
:10046000CF93DF93FC01F0808BE08F1508F44AC036
:10047000828108E512E0081B110987FD1395000F22
:10048000111F000F111F8181C8E8D0E0C81BD109DE
:1004900087FDD395CC0FDD1FCC0FDD1F4E010D2E38
:1004A000000CAA08BB089801012E000C440B550B48
:1004B000281939094A095B09DB010E94600724EB0E
:1004C00030E040E050E00E943607820E931EA41EEA
:1004D000B51E8C169D062CF0E801801691060CF4D2
:1004E000E4012297CC0FDD1F2FB7F8948F2D90E0F9
:1004F000FC01EE0FFF1FE80FF91FEF53FE4FD283F1
:10050000C1832FBFDF91CF911F910F91FF90BF90BB
:10051000AF909F908F900895892B79F4109280006E
:1005200082E0809381001092850010928400B19A3D
:1005300080916F00826080936F0008950F931F93E6
:10054000E091F001F091F10180819091EA01892B15
:100550008083E091EC01F091ED0190818091EA01BE
:100560008095892380838BE090E00197F1F7E091FB
:10057000EC01F091ED0180819091EA01892B80835B
:1005800083E290E00197F1F7E091EC01F091ED0149
:1005900090818091EA01809589238083E091F00128
:1005A000F091F10190818091EA0180958923808307
:1005B000E091EE01F091EF0180819091EB018923B0
:1005C00029F090E080E01F910F9108950E94F700BC
:1005D000AB01BC018091F2019091F301B0E0A0E089
:1005E0008855994EAF4FBF4F840F951FA61FB71F59
:1005F0008093F4019093F501A093F601B093F70175
:10060000E091EE01F091EF0180819091EB0189235F
:1006100081F40E94F7000091F4011091F5012091FE
:10062000F6013091F701061717072807390740F739
:10063000C8CF0E94F7002091F2013091F301620FC0
:10064000731F811D911D6093F4017093F5018093D8
:10065000F6019093F701E091EE01F091EF018081B6
:100660009091EB01892381F00E94F7000091F40141
:100670001091F5012091F6013091F7010617170747
:100680002807390740F79DCF0E94F7002091F2011B
:100690003091F301A901455051092091F4013091A5
:1006A000F501FA01E21BF30BCF01860F971F8BCFE9
:1006B0001F920F920FB60F9211242F933F938F9397
:1006C0009F93AF93BF9380911C0190911D01A091C6
:1006D0001E01B0911F0130911B0123E0230F2D3724
:1006E00058F50196A11DB11D20931B0180931C019B
:1006F00090931D01A0931E01B0931F0180912001D2
:1007000090912101A0912201B09123010196A11D98
:10071000B11D8093200190932101A0932201B093F9
:100720002301BF91AF919F918F913F912F910F9096
:100730000FBE0F901F90189526E8230F0296A11D5B
:10074000B11DD2CF1F920F920FB60F9211242F938B
:100750003F934F935F936F937F938F939F93AF9349
:10076000BF93EF93FF9384E291E00E949A01FF917F
:10077000EF91BF91AF919F918F917F916F915F9119
:100780004F913F912F910F900FBE0F901F90189592
:100790001F920F920FB60F9211242F938F939F9356
:1007A000EF93FF93E0913401F09135018081E09166
:1007B0003A01F0913B0182FD1BC0908180913D0187
:1007C0008F5F8F7320913E01821741F0E0913D01D0
:1007D000F0E0EC5DFE4F958F80933D01FF91EF912E
:1007E0009F918F912F910F900FBE0F901F90189592
:1007F0008081F4CF1F920F920FB60F9211242F9386
:100800003F934F935F936F937F938F939F93AF9398
:10081000BF93EF93FF93F0E0E0E00995FF91EF9134
:10082000BF91AF919F918F917F916F915F914F9108
:100830003F912F910F900FBE0F901F9018951F9210
:100840000F920FB60F9211242F933F934F935F9304
:100850006F937F938F939F93AF93BF93CF93DF93C8
:10086000EF93FF9380911A01C091E501D0E087FFDB
:1008700024C0109285001092840080911A018F5F2D
:1008800080931A0180911A01082E000C990B8C1785
:100890009D0724F480911A018C30C4F1809184006A
:1008A00090918500049680349C4908F47AC0809128
:1008B000840090918500049676C080911A01082EDC
:1008C000000C990B8C179D07C4F6E0911A018E2F2E
:1008D000EE0F990BFC01EE0FFF1FE80FF91FEF530E
:1008E000FE4F808186FFC9CFE0911A018E2FEE0F57
:1008F000990BFC01EE0FFF1FE80FF91FEF53FE4F9E
:10090000808160E08F730E94AB00B7CF209184009C
:1009100030918500E0911A018E2FEE0F990BFC01AA
:10092000EE0FFF1FE80FF91FEF53FE4F81819281F9
:10093000820F931F9093890080938800E0911A01A1
:100940008E2FEE0F990BFC01EE0FFF1FE80FF91F22
:10095000EF53FE4F808186FF11C0E0911A018E2F68
:10096000EE0F990BFC01EE0FFF1FE80FF91FEF537D
:10097000FE4F808161E08F730E94AB00FF91EF9189
:10098000DF91CF91BF91AF919F918F917F916F91A7
:100990005F914F913F912F910F900FBE0F901F903D
:1009A000189580E49CE990938900809388008FEFEC
:1009B00080931A01E3CF109227011092260188EE4E
:1009C00093E0A0E0B0E08093280190932901A093E8
:1009D0002A01B0932B0184E091E09093250180934C
:1009E000240185EC90E0909331018093300184ECF8
:1009F00090E0909333018093320180EC90E09093EB
:100A000035018093340181EC90E09093370180931D
:100A1000360182EC90E0909339018093380186ECA6
:100A200090E090933B0180933A0110923D01109227
:100A30003E0110923F01109240018091E5018C30FF
:100A400008F066C091E0980F9093E5018093FB0158
:100A500090E0FC01EE0FFF1FE80FF91FEF53FE4F70
:100A600088EB9BE0928381838091E5018C3008F0D4
:100A700053C091E0980F9093E5018093F80190E0C6
:100A8000FC01EE0FFF1FE80FF91FEF53FE4F88EB3D
:100A90009BE092838183E0EBF0E0E491E093EA0154
:100AA000E2EBF0E0E491E093EB018CE990E0FC01F3
:100AB0002491E22FF0E0EE0FFF1FE057FF4F25914A
:100AC00034913093ED012093EC01EEE9F0E0E491F4
:100AD000F0E0EE0FFF1FEA57FF4F2591349130935E
:100AE000EF012093EE01FC018491E82FF0E0EE0F7E
:100AF000FF1FE458FF4F859194919093F1018093EB
:100B0000F0018BE59BE09093F3018093F20108954F
:100B10008FEF8093FB01A8CF8FEF8093F801BBCFBD
:100B2000CF93DF93CDB7DEB7A1970FB6F894DEBFB2
:100B30000FBECDBF789484B5826084BD84B58160DA
:100B400084BD85B5826085BD85B5816085BD809198
:100B50006E00816080936E00109281008091810010
:100B60008260809381008091810081608093810008
:100B7000809180008160809380008091B1008460CA
:100B80008093B1008091B00081608093B00080912B
:100B90007A00846080937A0080917A0082608093EA
:100BA0007A0080917A00816080937A0080917A0047
:100BB000806880937A001092C100E0913401F09136
:100BC000350182E08083E0913001F09131011082A3
:100BD000E0913201F09133018FEC808310923C015F
:100BE000E0913801F091390186E08083E09136018F
:100BF000F0913701808180618083E0913601F0912E
:100C00003701808188608083E0913601F09137015F
:100C1000808180688083E0913601F0913701808186
:100C20008F7D808387E00E948C008091FB018C3057
:100C300008F042C089E00E948C008091FB01282FBF
:100C400030E0F901EE0FFF1FE20FF31FEF53FE4FED
:100C50009081907C996090831092FC011092FD012C
:100C60002CE0622F0E94990790E0829FB00111242E
:100C700030E020E0AB01420F531FFA01EE0FFF1FDF
:100C8000E40FF51FEF53FE4F408146FD07C02F5F75
:100C90003F4F2C30310571F70E948C02E091FB012F
:100CA0008E2F90E0FC01EE0FFF1FE80FF91FEF53AE
:100CB000FE4F80818064808365E070E08BEF91E07F
:100CC0000E9429028091F8018C3008F042C08AE02D
:100CD0000E948C008091F801282F30E0F901EE0F7E
:100CE000FF1FE20FF31FEF53FE4F9081907C9A603D
:100CF00090831092F9011092FA012CE0622F0E9469
:100D0000990790E0829FB001112430E020E0AB0110
:100D1000420F531FFA01EE0FFF1FE40FF51FEF53B1
:100D2000FE4F408146FD07C02F5F3F4F2C303105FD
:100D300071F70E948C02E091F8018E2F90E0FC0187
:100D4000EE0FFF1FE80FF91FEF53FE4F8081806405
:100D500080836AE570E088EF91E00E9429029AE0C2
:100D6000492E512C612C712C20E0222E20E0322EB5
:100D70000E949E02BC0190E080E029E330E040E068
:100D800050E00E94680719A28E010F5D1F4FCA0133
:100D9000B901A30192010E946807605DF8016293A6
:100DA0008F01211531054105510589F7309761F013
:100DB00001900020E9F73197AF01401B510BB801BA
:100DC00084E291E00E941C0142E050E062E171E0A7
:100DD00084E291E00E941C010E94F7004B015C013B
:100DE00082E3C82ED12CE12CF12C0E94F700681967
:100DF00079098A099B09683E734081059105A8F32A
:100E0000F1E0CF1AD108E108F10828EE820E23E0C4
:100E1000921EA11CB11CC114D104E104F10429F7F4
:100E20000E949E026AE570E08D31914010F06AE008
:100E300070E08BEF91E00E9429020E949E0265E023
:100E400070E08D31914010F06AE570E088EF91E03C
:100E50000E9429022114310409F48ACF0E948601DC
:100E6000882309F485CF0E94000082CF052E97FBCE
:100E70001EF400940E944D0757FD07D00E9468079A
:100E800007FC03D04EF40C944D07509540953095D7
:100E900021953F4F4F4F5F4F0895909580957095E6
:100EA00061957F4F8F4F9F4F08950E948A07A59F9E
:100EB000900DB49F900DA49F800D911D1124089555
:100EC000B7FF0C9455070E945507821B930B08959A
:100ED000A1E21A2EAA1BBB1BFD010DC0AA1FBB1F3E
:100EE000EE1FFF1FA217B307E407F50720F0A21BB0
:100EF000B30BE40BF50B661F771F881F991F1A941D
:100F000069F760957095809590959B01AC01BD0146
:100F1000CF010895A29FB001B39FC001A39F700DA0
:100F2000811D1124911DB29F700D811D1124911DF1
:100F30000895991B79E004C0991F961708F0961B35
:100F4000881F7A95C9F780950895EE0FFF1F0590C9
:0A0F5000F491E02D0994F894FFCF0E
:100F5A0000000000BC011C01490109027A01580184
:060F6A006C010D0A0000FD
:00000001FF
