:100000000C9462000C948A000C948A000C948A0070
:100010000C948A000C948A000C948A000C941904A5
:100020000C948A000C948A000C948A000C943E0470
:100030000C948A000C948A000C948A000C948A0018
:100040000C9477030C948A000C94E7030C94C1037E
:100050000C948A000C948A000C948A000C948A00F8
:100060000C948A000C948A00000000080002010031
:100070000003040700000000000000000000000072
:10008000240027002A000000000023002600290089
:1000900000000000250028002B00040404040404D0
:1000A0000404020202020202030303030303010227
:1000B00004081020408001020408102001020408F6
:1000C0001020FA0411241FBECFEFD8E0DEBFCDBF51
:1000D00011E0A0E0B1E0EEEBFEE002C005900D9271
:1000E000A631B107D9F721E0A6E1B1E001C01D9228
:1000F000AE3FB207E1F710E0C2E6D0E004C02197BE
:10010000FE010E945707C136D107C9F70E94940526
:100110000C945D070C9400008F929F92AF92BF9257
:10012000FF920F931F93CF93DF93F090FB012BE08F
:100130002F1508F44CC02091FD0108E512E0021BC8
:10014000110927FD1395000F111F000F111F20919A
:10015000FC01C8E8D0E0C21BD10927FDD395CC0F24
:10016000DD1FCC0FDD1F4E010D2E000CAA08BB08B1
:100170009801012E000C440B550B281939094A0926
:100180005B09DC010E94120724EB30E040E050E004
:100190000E94E806820E931EA41EB51E8C169D06B4
:1001A0002CF0E801801691060CF4E4012297CC0FA4
:1001B000DD1F2FB7F8948F2D90E0FC01EE0FFF1F8D
:1001C000E80FF91FEC53FE4FD283C1832FBFDF919D
:1001D000CF911F910F91FF90BF90AF909F908F9004
:1001E000089590E0FC01E859FF4F2491FC01E2558D
:1001F000FF4F3491FC01E656FF4FE491EE23C9F026
:10020000222339F0233001F1A8F4213019F12230F2
:1002100029F1F0E0EE0FFF1FE057FF4FA591B491D9
:100220008FB7F894EC91611126C030953E233C9332
:100230008FBF08952730A9F02830C9F0243049F73E
:10024000809180008F7D03C0809180008F778093A4
:100250008000DFCF84B58F7784BDDBCF84B58F7D01
:10026000FBCF8091B0008F778093B000D2CF809188
:10027000B0008F7DF9CF3E2BDACF3FB7F894809155
:10028000230190912401A0912501B091260126B56A
:10029000A89B05C02F3F19F00196A11DB11D3FBFBE
:1002A000BA2FA92F982F8827BC01CD01620F711D8D
:1002B000811D911D42E0660F771F881F991F4A9587
:1002C000D1F70895AF92BF92CF92DF92EF92FF9253
:1002D0000F931F93CF93DF936C017B018B01040F6E
:1002E000151FEB015E01AE18BF08C017D10759F00A
:1002F0006991D601ED91FC910190F081E02DC6014C
:100300000995892B79F7C501DF91CF911F910F9145
:10031000FF90EF90DF90CF90BF90AF900895FC01D9
:10032000538D448D252F30E0842F90E0821B930B5A
:10033000541710F0CF96089501970895FC01918D00
:10034000828D981761F0A28DAE0FBF2FB11D5D9603
:100350008C91928D9F5F9F73928F90E008958FEFA5
:100360009FEF0895FC01918D828D981731F0828D59
:10037000E80FF11D858D90E008958FEF9FEF0895B0
:10038000FC01918D228D892F90E0805C9F4F821B14
:1003900091098F739927089587E291E00E94C00127
:1003A00021E0892B09F420E0822F089580E090E07D
:1003B000892B29F00E94CC0181110C940000089532
:1003C000FC01A48DA80FB92FB11DA35ABF4F2C91CA
:1003D000848D90E001968F739927848FA689B789C1
:1003E0002C93A089B1898C91837080648C93938DB8
:1003F000848D981306C00288F389E02D80818F7D5B
:1004000080830895EF92FF920F931F93CF93DF9312
:10041000EC0181E0888F9B8D8C8D98131AC0E88940
:10042000F989808185FF15C09FB7F894EE89FF890F
:100430006083E889F98980818370806480839FBFAD
:1004400081E090E0DF91CF911F910F91FF90EF90AD
:100450000895F62E0B8D10E00F5F1F4F0F731127BD
:10046000E02E8C8D8E110CC00FB607FCFACFE889F8
:10047000F989808185FFF5CFCE010E94E001F1CF9F
:10048000EB8DEC0FFD2FF11DE35AFF4FF0829FB76C
:10049000F8940B8FEA89FB8980818062CFCFCF935C
:1004A000DF93EC01888D8823B9F0AA89BB89E8899C
:1004B000F9898C9185FD03C0808186FD0DC00FB642
:1004C00007FCF7CF8C9185FFF2CF808185FFEDCFC0
:1004D000CE010E94E001E9CFDF91CF9108950F9303
:1004E0001F93E091F301F091F40180819091ED016F
:1004F000892B8083E091EF01F091F0019081809150
:10050000ED018095892380838BE090E00197F1F7DE
:10051000E091EF01F091F00180819091ED01892B44
:10052000808383E290E00197F1F7E091EF01F09191
:10053000F00190818091ED01809589238083E09185
:10054000F301F091F40190818091ED018095892370
:100550008083E091F101F091F20180819091EE01B0
:10056000892329F090E080E01F910F9108950E9467
:100570003D01AB01BC018091F5019091F601B0E025
:10058000A0E08855994EAF4FBF4F840F951FA61F0F
:10059000B71F8093F7019093F801A093F901B093EE
:1005A000FA01E091F101F091F20180819091EE0168
:1005B000892381F40E943D010091F7011091F80117
:1005C0002091F9013091FA0106171707280739071A
:1005D00040F7C8CF0E943D012091F5013091F6010E
:1005E000620F731F811D911D6093F7017093F801D5
:1005F0008093F9019093FA01E091F101F091F201F9
:1006000080819091EE01892381F00E943D0100914B
:10061000F7011091F8012091F9013091FA010617C4
:1006200017072807390740F79DCF0E943D01209109
:10063000F5013091F601A901455051092091F701CA
:100640003091F801FA01E21BF30BCF01860F971FDF
:100650008BCF8F929F92AF92BF920F931F93CF93A6
:10066000DF93CDB7DEB7A1970FB6F894DEBF0FBE0C
:10067000CDBF19A2423008F44AE08E010F5D1F4F32
:10068000842E912CB12CA12CA50194010E941A0753
:10069000E62FB901CA01EA3044F5E05DD801EE93D6
:1006A0008D01232B242B252B79F790E080E01097E8
:1006B00069F0FD0101900020E9F73197AF014A1B75
:1006C0005B0BBD0187E291E00E946201A1960FB62B
:1006D000F894DEBF0FBECDBFDF91CF911F910F9178
:1006E000BF90AF909F908F900895E95CD7CF1F92F5
:1006F0000F920FB60F9211242F933F938F939F93D6
:10070000AF93BF9380911F0190912001A09121018F
:10071000B091220130911E0123E0230F2D3758F5AF
:100720000196A11DB11D20931E0180931F0190937E
:100730002001A0932101B093220180912301909187
:100740002401A0912501B09126010196A11DB11DA2
:100750008093230190932401A0932501B093260157
:10076000BF91AF919F918F913F912F910F900FBEAD
:100770000F901F90189526E8230F0296A11DB11D1A
:10078000D2CF1F920F920FB60F9211242F933F9347
:100790004F935F936F937F938F939F93AF93BF9389
:1007A000EF93FF9387E291E00E94E001FF91EF91C8
:1007B000BF91AF919F918F917F916F915F914F9179
:1007C0003F912F910F900FBE0F901F9018951F9281
:1007D0000F920FB60F9211242F938F939F93EF9345
:1007E000FF93E0913701F09138018081E0913D0164
:1007F000F0913E0182FD1BC09081809140018F5F8E
:100800008F7320914101821741F0E0914001F0E0A7
:10081000E95DFE4F958F80934001FF91EF919F918D
:100820008F912F910F900FBE0F901F901895808180
:10083000F4CF1F920F920FB60F9211242F933F9374
:100840004F935F936F937F938F939F93AF93BF93D8
:10085000EF93FF93F0E0E0E00995FF91EF91BF91F6
:10086000AF919F918F917F916F915F914F913F9148
:100870002F910F900FBE0F901F9018951F920F92FF
:100880000FB60F9211242F933F934F935F936F9363
:100890007F938F939F93AF93BF93CF93DF93EF9308
:1008A000FF9380911A01C091E801D0E087FF24C036
:1008B000109285001092840080911A018F5F8093BE
:1008C0001A0180911A01082E000C990B8C179D07B4
:1008D00024F480911A018C30C4F1809184009091AD
:1008E0008500049680349C4908F47AC08091840085
:1008F00090918500049676C080911A01082E000C14
:10090000990B8C179D07C4F6E0911A018E2FEE0FFC
:10091000990BFC01EE0FFF1FE80FF91FEC53FE4F80
:10092000808186FFC9CFE0911A018E2FEE0F990BBF
:10093000FC01EE0FFF1FE80FF91FEC53FE4F808103
:1009400060E08F730E94F100B7CF20918400309156
:100950008500E0911A018E2FEE0F990BFC01EE0F2E
:10096000FF1FE80FF91FEC53FE4F81819281820F28
:10097000931F9093890080938800E0911A018E2F35
:10098000EE0F990BFC01EE0FFF1FE80FF91FEC5360
:10099000FE4F808186FF11C0E0911A018E2FEE0F6D
:1009A000990BFC01EE0FFF1FE80FF91FEC53FE4FF0
:1009B000808161E08F730E94F100FF91EF91DF91E0
:1009C000CF91BF91AF919F918F917F916F915F91E7
:1009D0004F913F912F910F900FBE0F901F90189540
:1009E00080E49CE990938900809388008FEF809346
:1009F0001A01E3CF10922A011092290188EE93E0A8
:100A0000A0E0B0E080932B0190932C01A0932D01E6
:100A1000B0932E0184E091E0909328018093270108
:100A200085EC90E0909334018093330184EC90E066
:100A3000909336018093350180EC90E090933801DB
:100A40008093370181EC90E090933A0180933901D3
:100A500082EC90E090933C0180933B0186EC90E027
:100A600090933E0180933D0110924001109241010C
:100A700010924201109243018091E8018C3008F0FD
:100A80004FC091E0980F9093E8018093FB0190E0B4
:100A9000FC01EE0FFF1FE80FF91FEC53FE4F88EB30
:100AA0009BE092838183E0EBF0E0E491E093ED0141
:100AB000E2EBF0E0E491E093EE018CE990E0FC01E0
:100AC0002491E22FF0E0EE0FFF1FE057FF4F25913A
:100AD00034913093F0012093EF01EEE9F0E0E491DE
:100AE000F0E0EE0FFF1FEA57FF4F2591349130934E
:100AF000F2012093F101FC018491E82FF0E0EE0F68
:100B0000FF1FE458FF4F859194919093F4018093D7
:100B1000F3018BE59BE09093F6018093F501089536
:100B20008FEF8093FB01BFCF789484B5826084BD42
:100B300084B5816084BD85B5826085BD85B58160E1
:100B400085BD80916E00816080936E00109281005F
:100B5000809181008260809381008091810081601A
:100B600080938100809180008160809380008091DB
:100B7000B10084608093B1008091B0008160809367
:100B8000B00080917A00846080937A0080917A002E
:100B9000826080937A0080917A00816080937A00ED
:100BA00080917A00806880937A001092C100E09171
:100BB0003701F091380182E08083E0913301F091B8
:100BC00034011082E0913501F09136018FEC808381
:100BD00010923F01E0913B01F0913C0186E080835F
:100BE000E0913901F0913A01808180618083E09148
:100BF0003901F0913A01808188608083E091390168
:100C0000F0913A01808180688083E0913901F09110
:100C10003A0180818F7D80838091FB018C3008F0C8
:100C200068C0E7EBF0E02491E3EAF0E084918823E8
:100C300099F090E0880F991FFC01E458FF4FA591AF
:100C4000B491FC01E057FF4F859194918FB7F894D0
:100C5000EC91E22BEC938FBF8091FB01282F30E0C9
:100C6000F901EE0FFF1FE20FF31FEC53FE4F9081CF
:100C7000907C996090831092FC011092FD012CE011
:100C8000622F0E944B07829FB001112430E020E0C8
:100C9000AB01420F531FFA01EE0FFF1FE40FF51FC8
:100CA000EC53FE4F908196FD16C02F5F3F4F2C30C6
:100CB000310571F781110FC01092800082E080939E
:100CC00081001092850010928400B19A80916F008B
:100CD000826080936F00E091FB018E2F90E0FC0119
:100CE000EE0FFF1FE80FF91FEC53FE4F8081806469
:100CF000808385E090E00E948C00C0E0D0E001E0BD
:100D000010E0772473940E943D016B017C0182E323
:100D1000882E912CA12CB12C0E943D016C197D09CB
:100D20008E099F09683E734081059105A8F321E073
:100D3000821A9108A108B10888EEC80E83E0D81E77
:100D4000E11CF11C81149104A104B10429F70E9453
:100D50006F028237910520F180911C0190911D0155
:100D6000892BF1F460911B0170E090E080E04AE093
:100D70000E94290342E050E062E171E087E291E0E5
:100D80000E94620180911B0181111DC070921B01A4
:100D900084EB90E00E948C0010931D0100931C01D5
:100DA0000E946F02C99720F410921D0110921C013D
:100DB000209709F4A8CF0E94CC01882309F4A3CF7F
:100DC0000E940000A0CF10921B0190E080E0E2CFD3
:100DD000052E97FB1EF400940E94FF0657FD07D0D6
:100DE0000E941A0707FC03D04EF40C94FF0650959E
:100DF0004095309521953F4F4F4F5F4F0895909507
:100E00008095709561957F4F8F4F9F4F08950E94F9
:100E10003C07A59F900DB49F900DA49F800D911D40
:100E200011240895B7FF0C9407070E940707821B3F
:100E3000930B0895A1E21A2EAA1BBB1BFD010DC046
:100E4000AA1FBB1FEE1FFF1FA217B307E407F5077A
:100E500020F0A21BB30BE40BF50B661F771F881F56
:100E6000991F1A9469F760957095809590959B01EC
:100E7000AC01BD01CF010895A29FB001B39FC00195
:100E8000A39F700D811D1124911DB29F700D811DB6
:100E90001124911D0895991B79E004C0991F96179C
:100EA00008F0961B881F7A95C9F780950895EE0F74
:0E0EB000FF1F0590F491E02D0994F894FFCFF8
:100EBE0000000000020262018F014F02C0019E017C
:060ECE00B2010D0A000054
:00000001FF
