:100000000C9458000C9480000C9480000C94800098
:100010000C9480000C9480000C9480000C94800060
:100020000C9480000C9480000C9480000C94800050
:100030000C9480000C9480000C9480000C94800040
:100040000C942F040C9480000C9480000C9480007D
:100050000C9480000C9480000C9480000C94800020
:100060000C9410030C948000000000002500280070
:100070002B00040404040404040402020202020229
:10008000030303030303010204081020408001025C
:1000900004081020010204081020000000080002DB
:1000A00001000003040700000000000000007904C4
:1000B00011241FBECFEFD8E0DEBFCDBF11E0A0E01E
:1000C000B1E0E2EBFBE002C005900D92A632B10771
:1000D000D9F721E0A6E2B1E001C01D92AD3FB20721
:1000E000E1F710E0C8E5D0E004C02197FE010E94CE
:1000F000D105C735D107C9F70E9499040C94D705DB
:100100000C94000090E0FC01E656FF4F2491FC01A6
:10011000EA57FF4F3491FC01EE58FF4FE491EE2374
:10012000B1F0222339F02330E9F090F4213001F1CD
:10013000223011F1F0E0EE0FFF1FE859FF4FA591BB
:10014000B4918FB7F894EC913E2B3C938FBF0895F8
:100150002730A9F02830C9F0243061F78091800061
:100160008F7D03C0809180008F7780938000E2CFE5
:1001700084B58F7784BDDECF84B58F7DFBCF809132
:10018000B0008F778093B000D5CF8091B0008F7D85
:10019000F9CF85ED8093BC008091BC0084FDFCCF3D
:1001A0001092BF01089520919901260F3327331F24
:1001B00021323105ECF42091BF01FC0190E080E098
:1001C000243069F082E00895A09199012191AC0159
:1001D00049585E4FA40FB52FB11D2C930196861779
:1001E00098F380919901680F6093990180E00895D8
:1001F00081E00895089508950895E0917401809133
:100200007301E81730F4F0E0ED5AFE4F808190E082
:1002100008958FEF9FEF089590917401809173017D
:100220002FEF3FEF981748F4E92FF0E0ED5AFE4F1B
:10023000208130E09F5F90937401C90108958091FF
:10024000730190917401891B990B0895CF92DF92ED
:10025000EF92FF920F931F93CF93DF937C01CB011B
:100260008A0120915201222389F0EB016B01C40E17
:10027000D51ECC15DD0569F06991D701ED91FC9192
:100280000190F081E02DC7010995F3CF642F0E9402
:10029000D300C801DF91CF911F910F91FF90EF9094
:1002A000DF90CF900895CF93DF931F92CDB7DEB745
:1002B0006983209152012223F9F0209175012032A7
:1002C00058F021E030E0FC013383228390E080E0AD
:1002D0000F90DF91CF91089580917601E82FF0E0A3
:1002E000EE5CFE4F998190838F5F809376018093BF
:1002F000750181E090E0ECCF61E0CE0101960E94B3
:10030000D300F7CF3FB7F89480912E0190912F0141
:10031000A0913001B091310126B5A89B05C02F3FB7
:1003200019F00196A11DB11D3FBFBA2FA92F982F1B
:100330008827BC01CD01620F711D811D911D42E016
:10034000660F771F881F991F4A95D1F708958F92DE
:100350009F92AF92BF92CF92DF92EF92FF924B01AA
:100360005C010E9482016B017C010E9482016C1978
:100370007D098E099F09683E734081059105A8F3A8
:1003800021E0821A9108A108B10888EEC80E83E026
:10039000D81EE11CF11C81149104A104B10429F7B9
:1003A000FF90EF90DF90CF90BF90AF909F908F9095
:1003B0000895AF92BF92CF92DF92EF92FF920F9388
:1003C0001F93CF93DF936C017B018B01040F151FEB
:1003D000EB015E01AE18BF08C017D10759F0699153
:1003E000D601ED91FC910190F081E02DC6010995B7
:1003F000892B79F7C501DF91CF911F910F91FF9064
:10040000EF90DF90CF90BF90AF900895CF93FC0115
:10041000C48121E020935201C093260110927601FD
:10042000109275018385682B85EE91E00E9453013F
:1004300090917501913208F03FC08091BF01811108
:10044000FCCF82E08093BF0181E08093C1018FEFF8
:100450008093BE011092E3019093E201A2E3B1E028
:10046000E2ECF1E080E098132FC01092E40180915B
:10047000E401CC0FC82BC093E4018091C00181300E
:1004800039F51092C0018091E4018093BB00809106
:10049000BC0083FDF8CF85EC8093BC008091BF0148
:1004A0008230E1F38091BE018F3F31F08091BE0137
:1004B000803211F08091BE01109276011092750188
:1004C00010925201CF9108952D9121938F5FCBCF40
:1004D00085EEE2CF089590E080E008950F931F939A
:1004E000CF938C01C62F0E9406026C2F6460C80156
:1004F0000E9406026C2F6B7FC8010E94060283ECEB
:1005000090E00197F1F7CF911F910F9108950F930C
:100510001F93CF93DF938C01D62FC42F607F642B62
:100520000E946E0280E1D89FB00111246C2BC8019B
:10053000DF91CF911F910F910C946E02CF93DF93B7
:10054000823028F09091F60198609093F6018093A4
:10055000F90162E370E080E090E00E94A701609101
:10056000FC0181EF91E00E94060268EE73E080E0FA
:1005700090E00E94A70160E381EF91E00E946E028B
:10058000CBE4D6E4CE010197F1F760E381EF91E08F
:100590000E946E022197F1F760E381EF91E00E94E3
:1005A0006E0283E592E00197F1F760E281EF91E05E
:1005B0000E946E026091F601606240E081EF91E07E
:1005C0000E94870284E08093F70140E06CE081EFB5
:1005D00091E00E94870240E061E081EF91E00E949B
:1005E0008702CBE3DFE1CE010197F1F782E0809350
:1005F000F80140E066E081EF91E00E94870240E070
:1006000062E081EF91E00E9487022197F1F7DF918C
:10061000CF91089541E00E94870281E090E0089523
:100620001F920F920FB60F9211242F933F934F9367
:100630005F936F937F938F939F93AF93BF93EF934A
:10064000FF938091B900887F803609F44AC0F0F5A5
:10065000883209F4A7C018F5803109F49BC0B8F4BA
:10066000882309F4F9C0883009F494C0FF91EF9110
:10067000BF91AF919F918F917F916F915F914F91BA
:100680003F912F910F900FBE0F901F9018958831BA
:1006900009F488C0803251F78093BE0114C08034C1
:1006A00009F49DC040F48033B9F38833F9F68093A0
:1006B000BE0185ECB0C0803509F485C0883509F4E9
:1006C00096C0883499F60E94C900D0CF883909F4C1
:1006D0008CC038F5883729F050F4883611F080370F
:1006E00029F683E08093BF011092BD0157C088387E
:1006F00009F47BC0803919F0803809F0B7CF8091B8
:10070000BD01803208F071C0E091BD0181E08E0F23
:100710008093BD018091BB00F0E0E356FE4F8083E3
:100720003DC0803B39F0E0F4803A09F479C0883A62
:1007300009F09CCF84E08093BF0110929A0110923F
:100740009901E0919701F0919801099580919901A3
:1007500081110FC081E0809399011092770109C047
:10076000803C09F4A6CF883C09F4A3CF883B09F06C
:100770007DCFE0919A0181E08E0F80939A01F0E0A5
:10078000E958FE4F80818093BB0090919A0180913F
:10079000990129C08091E4018093BB0085EC80938E
:1007A000BC0064CF9091E3018091E201981758F565
:1007B000E091E30181E08E0F8093E301F0E0EE53DE
:1007C000FE4F8081E9CFE091E30181E08E0F8093BD
:1007D000E3018091BB00F0E0EE53FE4F80839091E7
:1007E000E3018091E2019817C8F285E8D8CFE09143
:1007F000E30181E08E0F8093E3018091BB00F0E084
:10080000EE53FE4F80838091C10181115CCF81E066
:100810008093C00184EA8093BC001092BF0126CF70
:1008200085EC8093BC001092BF018091BD018032A5
:1008300030F4E091BD01F0E0E356FE4F108260918C
:10084000BD0170E0E0919B01F0919C018DE991E088
:1008500009951092BD010ACF1092BE0134CF1F92AC
:100860000F920FB60F9211242F933F938F939F9364
:10087000AF93BF9380912A0190912B01A0912C01FD
:10088000B0912D013091290123E0230F2D3758F528
:100890000196A11DB11D2093290180932A019093F7
:1008A0002B01A0932C01B0932D0180912E019091EA
:1008B0002F01A0913001B09131010196A11DB11D10
:1008C00080932E0190932F01A0933001B0933101BA
:1008D000BF91AF919F918F913F912F910F900FBE3C
:1008E0000F901F90189526E8230F0296A11DB11DA9
:1008F000D2CFE5EEF1E01382128288EE93E0A0E021
:10090000B0E084839583A683B7838CE091E09183E4
:100910008083E1EFF1E0138212828EE191E0918316
:10092000808387E2848380E1818782E082871386E7
:100930000895CF93DF93CDB7DEB7A1970FB6F894A4
:10094000DEBF0FBECDBF789484B5826084BD84B510
:10095000816084BD85B5826085BD85B5816085BDBA
:1009600080916E00816080936E0010928100809172
:1009700081008260809381008091810081608093FA
:100980008100809180008160809380008091B1001F
:1009900084608093B1008091B00081608093B0004A
:1009A00080917A00846080937A0080917A008260DE
:1009B00080937A0080917A00816080937A008091A0
:1009C0007A00806880937A001092C10082E00E94D1
:1009D0009E0210927401109273011092760110928F
:1009E00075011092BF0181E08093C1011092C00196
:1009F00082E10E94820083E10E9482008091B9001E
:100A00008E7F8093B9008091B9008D7F8093B9006B
:100A100088E48093B80085E48093BC008AEF90E07E
:100A200090939801809397018BEF90E090939C01B5
:100A300080939B011092F6018091FB010E949E021F
:100A400088E08093FC0160E081EF91E00E94060263
:100A50009AE0892E912CA12CB12C00E010E088E0C6
:100A6000E0E0F1E0DE01119601900D928A95E1F748
:100A70008091F901EFEF8111E1E0F0E0EE0FFF1F4F
:100A800081E090E08C0F9D1FE80FF91F6081606886
:100A900040E081EF91E00E948702C0902701D09052
:100AA0002801C601019690932801809327010D2CFF
:100AB000000CEE08FF08F7FE3CC041E06DE281EF5C
:100AC00091E00E94870222273327A9012C193D09B2
:100AD0004E095F0919A2FE01B1967F01CA01B90151
:100AE000A50194010E94AF05605DF70162937F014B
:100AF000211531054105510589F7E114F10461F033
:100B000001900020E9F73197AF014E195F09B70155
:100B100081EF91E00E94D90168EE73E080E090E0FF
:100B20000E94A7010115110509F499CF0E94000048
:100B300096CFA701960119A2CE0181967C01CA0128
:100B4000B901A50194010E94AF05605DF7016293B0
:100B50007F01211531054105510589F7CECFA1E26D
:100B60001A2EAA1BBB1BFD010DC0AA1FBB1FEE1F27
:100B7000FF1FA217B307E407F50720F0A21BB30B72
:100B8000E40BF50B661F771F881F991F1A9469F7EE
:100B900060957095809590959B01AC01BD01CF014A
:100BA0000895EE0FFF1F0590F491E02D0994F8943D
:020BB000FFCF75
:100BB2000000400014005400000000005301260110
:100BC2006B02FC001F010C01FD00000000000A0383
:060BD200D9016B026A026A
:00000001FF
